:1000000010C028C027C026C025C024C023C022C0DD
:1000100021C020C01FC01EC01DC01CC01BC01AC0F4
:1000200019C011241FBECFEDCDBF10E0A0E6B0E097
:10003000EAEDF7E002C005900D92A836B107D9F7B6
:1000400010E0A8E6B0E001C01D92AA37B107E1F7C1
:1000500069D0C1C3D5CF0F931F93DF93CF93CDB793
:10006000DEB7C350CDBF80916B00BE016F5F7F4F85
:10007000AE014E5F5F4F9E012D5F3F4F08E610E0DF
:10008000A2D1982F8350823010F081E0911180E04E
:10009000CD5FCDBFCF91DF911F910F910895FF925A
:1000A0000F931F93DF93CF930F92CDB7DEB78FEFF0
:1000B0008983FF248E010F5F1F4F0BC0C8016BE6C1
:1000C00070E03DD189818F3F49F08E3F39F0FF24A8
:1000D000F3948981882311F0FF2081F38F2D0F90F5
:1000E000CF91DF911F910F91FF90089589E390E0E8
:1000F0006BE370E04AE350E022E042D2D0DF882395
:1001000031F464E87BE28AE090E001D3C8DF81301B
:1001100031F480E060E070E03FD191E0811190E047
:10012000892F0895FF920F931F9387E087BB88E084
:1001300088BB8AE08ABB84E88BBB10926A00789403
:10014000FF24F39402E0CF9902C0F0926A00CEDF60
:10015000182F60ED72E288E090E0D9D260ED72E293
:1001600088E090E0D4D2112371F375DF882309F47D
:1001700044C0D998C198C09820916A00213081F478
:10018000C19A809168009091690025E081369207BC
:1001900020F000936A00DB9AD6CFC29ADB98D3CFC7
:1001A00080916800909169002230D1F4C09AC29881
:1001B000DB9822E0803B920730F610E0DB9A60ED9E
:1001C00072E288E090E0A3D2DB9860ED72E288E012
:1001D00090E09DD21F5F153089F710926A00B3CF6F
:1001E000D99ADB9822E08036920710F4C29AABCFFE
:1001F00022E08137920708F4A6CFC298A4CFEF92ED
:10020000FF920F931F93CF93DF93FB01DA0140819D
:1002100050E0718160E0462B572B803171F4BA01B8
:100220006E7F93E0660F771F9A95E1F796814CE019
:1002300050E0491B5109460F571FE7015983488376
:1002400057FF06C091E09C93509541955F4F01C0C8
:100250001C92883289F4848190E0BC0160767070D1
:100260006036710549F086FF02C04E7F05C085FFEC
:1002700002C04C7F01C0487FCA0154E09695879523
:100280005A95E1F7F90180834F70E801488380E0D7
:10029000DF91CF911F910F91FF90EF9008950F93F1
:1002A0001F93DF93CF93CDB7DEB7C850CDBF182FC4
:1002B000062FDE011196E0E6F0E088E001900D9255
:1002C0008150E1F7842F90E061E772E04BD268EE55
:1002D00073E05AD29B01802F90E06AE070E042D236
:1002E000280F391F112371F4FE013196BE01675F9B
:1002F0007F4F8191481719F42F5F3F4F03C0E617D6
:10030000F707B9F7C901C85FCDBFCF91DF911F9142
:100310000F910895882319F0709561957F4F4423BC
:1003200019F0309521953F4F6217730734F081E043
:10033000261737071CF080E008958FEF08950F937C
:100340001F93CF93DF938C01EB01F8018081BE01F5
:100350007DD1F801808381508D3F28F488818832D7
:1003600011F0803191F7DF91CF911F910F91089596
:100370001F93CF93DF93EC01BFD084EBBE01ADD1CF
:1003800081E015D1182FB8D081E0112309F480E065
:10039000DF91CF911F9108951F93CF93DF93182F73
:1003A000EB01AAD078D0882339F084E4BE0195D13E
:1003B000113021F079D002C082E001C080E0DF91ED
:1003C000CF911F9108952F923F925F926F927F92EB
:1003D0008F929F92AF92BF92CF92DF92EF92FF9255
:1003E0000F931F93DF93CF93CDB7DEB7C950CDBF27
:1003F000582E4B013A0159016801F80120803180E3
:100400008EEB60E070E069D18E010F5F1F4F2AE034
:10041000E22EF12CEC0EFD1E16D1F80181938F0116
:10042000EE15FF05C9F78E010F5F1F4FC80169E088
:1004300070E07AD1882391F4852DB801A40193014D
:1004400085017601DCDE8A81853051F48981803531
:1004500039F4F6013182208284E003C083E001C0D8
:1004600080E0C75FCDBFCF91DF911F910F91FF90CB
:10047000EF90DF90CF90BF90AF909F908F907F9044
:100480006F905F903F902F9008958115910511F026
:100490000197F1F70895E0917600F091770090814F
:1004A0008091750089230895E0917300F0917400A4
:1004B000808190917500892B8083E0917800F09184
:1004C0007900808190917500892B80830895E09157
:1004D0007300F0917400908180917500809589235C
:1004E0008083E0917800F09179009081809175008F
:1004F0008095892380830895FF920F931F93E09145
:100500007300F0917400908180917500809589232B
:100510008083E0917800F09179008081909175005E
:10052000892B80838FEB93E0B0DFFFB6F894E091E6
:100530007800F091790090818091750080958923F1
:10054000808383E890E0A1DFE0917600F09177006E
:10055000008110917500FFBE8BE393E096DFE09180
:100560007600F0917700808190917500892319F0D1
:10057000802F812301C081E01F910F91FF9008958A
:1005800050937900409378007093740060937300E7
:10059000909377008093760081E090E002C0880F0E
:1005A000991F2A95E2F780937500A6DF08950F93AF
:1005B0001F93182F0FB7F894E0917800F09179000D
:1005C000808190917500892B808381E090E05DDFD0
:1005D000112351F0E0917800F091790090818091A1
:1005E000750080958923808389E190E04EDFE0915A
:1005F0007600F0917700808190917500892309F44D
:1006000010E089E590E041DFE0917800F091790019
:100610009081809175008095892380830FBF812F01
:100620001F910F9108950F931F93182F08E0812FAA
:100630008170BDDF1695811110680150C1F7812FBF
:100640001F910F9108958FEFEEDF0895DF92EF92E3
:10065000FF920F931F93CF93DF93182FEB014CDF83
:10066000882369F580EFDFDFEE2400E498EFD92ED0
:10067000D00E81E09CDFF82E81E099DF882319F00D
:10068000FF2069F01FC0FF2051F4011728F0888176
:1006900080FF05C0101719F0E02EFF24F3948F2D72
:1006A00086DF888186958883FF2011F080688883A3
:1006B00001500D15F1F6002339F02196D7CFEE2425
:1006C000EA9402C08EEFE82E8E2DDF91CF911F911C
:1006D0000F91FF90EF90DF9008950F931F93CF93AA
:1006E000DF93182FEB0108DF209741F085E59BDFB2
:1006F00008E0899198DF0150E1F702C08CEC93DFAC
:10070000812F91DFDF91CF911F910F910895DC012F
:10071000CB0181159105A105B10529F081509040CB
:10072000A040B040D9F70895282F392FF90120E0D3
:1007300030E080E0A8E112C0419198E0542F5827A2
:10074000B52FB17050FD8A278695B13009F48068C5
:10075000915011F04695F2CF2F5F3F4F2617370784
:1007600059F708955527002480FF02C0060E571F31
:10077000660F771F6115710521F096958795009793
:1007800099F7952F802D089597FB092E07260AD0FB
:1007900077FD04D00CD006D000201AF47095619536
:1007A0007F4F0895F6F7909581959F4F0895AA1B66
:1007B000BB1B51E107C0AA1FBB1FA617B70710F04C
:1007C000A61BB70B881F991F5A95A9F7809590957E
:0A07D000BC01CD010895F894FFCF9D
:0807DA0001030406090B0C0EDB
:00000001FF
