:1000000010C029C028C027C026C025C0BAC023C040
:1000100022C021C020C01FC01EC0D3C01CC01CC035
:1000200036C011241FBECFEDCDBF10E0A0E6B0E07A
:10003000E8E8F6E003C0C89531960D92A036B10706
:10004000D1F710E0A0E6B0E001C01D92A039B107E1
:10005000E1F71FD218C3D4CF1F920F920FB60F92A1
:1000600011248F9310926100D698CC9B02C0CE9B36
:10007000FCCFCE9902C088EF01C088EA8DB980EF2D
:100080008EB98F910F900FBE0F901F9018951F92F1
:100090000F920FB60F9211242F933F938F939F933C
:1000A000EF93FF9380916100823009F43FC0833069
:1000B00030F4882361F0813009F058C01CC08430CE
:1000C000D9F18430A8F0853009F050C03BC08FB121
:1000D000882351F02FB133272E7F3070809160003C
:1000E000992728173907F9F4789B39C081E038C07F
:1000F0008FB18823C1F49091740080917500981796
:1001000091F0809175008F5F877080937500E0910A
:100110007500FF27E459FF4F80818FB982E08093FB
:100120006100D69A0DC088EA8DB90AC083E0809339
:100130006100D6981FB818C085E080936100D698FA
:1001400080E713C080916A008F5F877080936A0098
:10015000E0916A008FB1FF27EE59FF4F808384E062
:10016000809361001FB8D69A8EE78EB9FF91EF9108
:100170009F918F913F912F910F900FBE0F901F90E5
:1001800018951F920F920FB60F9211248F939F9381
:10019000809189008F5F809389008A3058F0109297
:1001A0008900809186009091870001969093870046
:1001B000809386009F918F910F900FBE0F901F909C
:1001C00018951F920F920FB60F9211242F933F9301
:1001D0004F935F936F937F938F939F93AF93BF934F
:1001E00047B14F7024B185B133279927982F8827BD
:1001F000282B392B433031F430937E0020937D003F
:1002000082E01CC04230E9F480918300813029F4FF
:100210003093850020938400A4C080918400909145
:1002200085008217930718F020E030E002C0281BF9
:10023000390B30937C0020937B0081E08093790020
:1002400090C0413039F430937700209376001092BB
:10025000790087C0442309F084C0932F822F96959C
:1002600087959695879580938F00813F18F080EF52
:1002700080938F0083E080937900809183008430A5
:10028000A1F480917B0090917C00C29738F086B7F2
:10029000823008F466C086B7815062C086B7803F5E
:1002A00008F05FC086B78F5F5BC0833009F057C02E
:1002B00020917D0030917E0060917B0070917C00E8
:1002C000932F822FC6D1AA27BB2743E0B695A795C7
:1002D000979587954A95D1F7482F592F909380008D
:1002E00080937F0080918100909182008417950710
:1002F00020F481E080937A0002C010927A0080910D
:100300008A0090918B008217930720F481E08093FC
:10031000780002C0109278005093820040938100D0
:1003200030938B0020938A00CE9B16C080917A0078
:10033000882329F480917800882339F00BC081301C
:1003400081F480917800813011F416BE0AC08823B0
:1003500019F007C0813029F480918F0001C081E03D
:1003600086BF17B887B190917900892B87B98CEC3B
:1003700086B9BF91AF919F918F917F916F915F915E
:100380004F913F912F910F900FBE0F901F90189596
:100390004FB7F894209186003091870080918C00AF
:1003A00090918D002817390720F04FBF81E090E031
:1003B00008954FBF80E090E00895809188008230DA
:1003C00041F0833011F0813031F48091890082FD59
:1003D00002C0C09801C0C09A80918E00813029F47B
:1003E0008091890082FD03C004C0882311F4C19A62
:1003F0000895C198089510926B0010926A001092AF
:10040000750010927400089510926B0010926A00AB
:1004100010927500109274008AB380658ABBDC9AD2
:10042000DE9AD69888EA8DB980EF8EB90895282F84
:10043000909174009F5F9770809175009817E1F319
:10044000E92FFF27E459FF4F20839093740008950C
:1004500090916A0080916B009817D1F380916B00A6
:100460008F5F877080936B00E0916B00FF27EE59E0
:10047000FF4F80819927089590916A0080916B00C9
:1004800020E030E0981711F021E030E0932F822F28
:100490000895CF93DF9387E087BB88E088BB1ABAC3
:1004A00080EF8BBB33E03093790010927E00109286
:1004B0007D0010928B0010928A0010927C001092A6
:1004C0007B001092770010927600109280001092BC
:1004D0007F00109282001092810010928900109289
:1004E00087001092860021E02093830081E090E055
:1004F00090938D0080938C0010928E001092880053
:1005000023BF30BF16BE1CBE19BE3FBD8CE18EBDE1
:1005100012BC8CE08BBD85E38ABD82E08CB917B834
:1005200087B1836087B98CEC86B9A0E0B0E0A3D036
:10053000802D8093600068DF789490916A008091AC
:100540006B009817E1F084DF853A29F0863A59F07C
:10055000C0E0D0E00CC08FB7F894C0917D00D0917E
:100560007E008FBF04C0C0918600D091870080912B
:1005700083005DDF8D2F99275ADF8C2F58DF809104
:100580008300813031F404DF882309F460C082E005
:100590000BC08230A9F483E880BF8AE086BFF8DE12
:1005A000882309F454C083E08093830080918600FF
:1005B00090918700029690938D0080938C0047C0A5
:1005C0008FB7F89420917600309177008FBF80919B
:1005D0007D0090917E00845C924020F481E08093C5
:1005E0008E0002C010928E00932F822F8053914074
:1005F0008F5B914010F082E005C082E0253C380717
:1006000020F083E08093880008C042E0203C34075B
:1006100010F081E0F7CF1092880080918E0088233F
:1006200021F480918800823011F48AE00EC083307A
:1006300011F484E10AC02130310511F4CE9902C0D1
:10064000CF9902C084E001C083E080938300B5DECF
:1006500074CF5527002480FF02C0060E571F660F77
:10066000771F6115710521F096958795009799F789
:10067000952F802D0895E199FECFBFBBAEBBE09AC8
:0806800011960DB20895FFCFA1
:00000001FF
